:020000040800F2
:10000000C0350020092D000809280008F52C00083B
:10001000F52C0008F52C0008F52C00080000000065
:10002000000000000000000000000000C52D0008D6
:10003000F52C000800000000612D0008B18B0008BD
:10004000852F0008852F0008852F0008852F0008C0
:10005000852F0008852F0008852F0008852F0008B0
:10006000852F0008852F0008852F0008852F0008A0
:10007000852F0008852F0008852F0008852F000890
:10008000852F0008852F0008852F0008852F000880
:10009000852F0008852F0008852F0008852F000870
:1000A000852F0008852F0008852F0008852F000860
:1000B000852F0008852F0008852F0008852F000850
:1000C000852F0008852F0008852F0008852F000840
:1000D000852F0008852F0008852F0008852F000830
:1000E000852F0008852F0008852F0008852F000820
:1000F000852F0008852F0008852F0008852F000810
:10010000852F0008852F0008852F0008852F0008FF
:10011000852F0008852F0008852F0008852F0008EF
:10012000852F0008852F0008852F0008852F0008DF
:10013000852F0008852F0008852F0008852F0008CF
:10014000852F0008852F0008852F0008852F0008BF
:10015000852F0008852F0008852F0008852F0008AF
:10016000852F0008852F0008852F0008852F00089F
:10017000852F0008852F0008852F0008852F00088F
:08018000852F0008852F0008FF
:1001880080F0004002E000BF81F0004142001FBF44
:100198005FEA410392EA030F7FEA226C7FEA236C4D
:1001A8006AD04FEA1262D2EB1363C1BFD218414042
:1001B80048404140B8BF5B42192B88BF704710F0D8
:1001C800004F40F4000020F07F4018BF404211F07B
:1001D800004F41F4000121F07F4118BF494292EAE3
:1001E800030F3FD0A2F1010241FA03FC10EB0C000F
:1001F800C3F1200301FA03F100F0004302D549429C
:1002080060EB4000B0F5000F13D3B0F1807F06D348
:1002180040084FEA310102F10102FE2A51D2B1F140
:10022800004F40EBC25008BF20F0010040EA030035
:100238007047490040EB0000013A28BFB0F5000FB5
:10024800EDD2B0FA80FCACF1080CB2EB0C0200FA6B
:100258000CF0AABF00EBC25052421843BCBFD040BA
:100268001843704792F0000F81F4000106BF80F434
:1002780000000132013BB5E74FEA41037FEA226CF7
:1002880018BF7FEA236C21D092EA030F04D092F0C2
:10029800000F08BF0846704790EA010F1CBF0020F6
:1002A800704712F07F4F04D1400028BF40F0004053
:1002B800704712F100723CBF00F50000704700F073
:1002C800004343F0FE4040F4000070477FEA22629A
:1002D80016BF08467FEA23630146420206BF5FEA6B
:1002E800412390EA010F40F4800070474FF000036B
:1002F80004E000BF10F0004348BF40425FEA000C32
:1003080008BF704743F0964301464FF000001CE0D9
:1003180050EA010208BF70474FF000030AE000BF2F
:1003280050EA010208BF704711F0004302D540426D
:1003380061EB41015FEA010C02BF844601460020DF
:1003480043F0B64308BFA3F18053A3F50003BCFAFA
:100358008CF2083AA3EBC25310DB01FA02FC6344A7
:1003680000FA02FCC2F12002BCF1004F20FA02F2AE
:1003780043EB020008BF20F00100704702F12002A1
:1003880001FA02FCC2F1200250EA4C0021FA02F202
:1003980043EB020008BF20EADC7070474FF0FF0C07
:1003A8001CEAD0521EBF1CEAD15392EA0C0F93EA02
:1003B8000C0F6FD01A4480EA010C400218BF5FEAA4
:1003C80041211ED04FF0006343EA501043EA511117
:1003D800A0FB01310CF00040B1F5000F3EBF490011
:1003E80041EAD3715B0040EA010062F17F02FD2A15
:1003F8001DD8B3F1004F40EBC25008BF20F00100F8
:10040800704790F0000F0CF0004C08BF49024CEA0E
:10041800502040EA51207F3AC2BFD2F1FF0340EAA0
:10042800C250704740F400004FF00003013A5DDC11
:1004380012F1190FDCBF00F000407047C2F1000252
:10044800410021FA02F1C2F1200200FA02FC5FEA3F
:10045800310040F1000053EA4C0308BF20EADC7089
:10046800704792F0000F00F0004C02BF400010F4FB
:10047800000F013AF9D040EA0C0093F0000F01F0A8
:10048800004C02BF490011F4000F013BF9D041EACA
:100498000C018FE70CEAD15392EA0C0F18BF93EACC
:1004A8000C0F0AD030F0004C18BF31F0004CD8D1F6
:1004B80080EA010000F00040704790F0000F17BF7D
:1004C80090F0004F084691F0000F91F0004F14D0C3
:1004D80092EA0C0F01D142020FD193EA0C0F03D11B
:1004E8004B0218BF084608D180EA010000F000401E
:1004F80040F0FE4040F40000704740F0FE4040F4F9
:10050800400070474FF0FF0C1CEAD0521EBF1CEA97
:10051800D15392EA0C0F93EA0C0F69D0A2EB0302B5
:1005280080EA010C49024FEA402037D04FF080534F
:1005380043EA111143EA10130CF000408B4238BF14
:100548005B0042F17D024FF4000C8B4224BF5B1A22
:1005580040EA0C00B3EB510F24BFA3EB510340EA70
:100568005C00B3EB910F24BFA3EB910340EA9C001E
:10057800B3EBD10F24BFA3EBD10340EADC001B018E
:1005880018BF5FEA1C1CE0D1FD2A3FF650AF8B4232
:1005980040EBC25008BF20F0010070470CF0004C3F
:1005A8004CEA50207F32C2BFD2F1FF0340EAC2506A
:1005B800704740F400004FF00003013A37E792F02B
:1005C800000F00F0004C02BF400010F4000F013A89
:1005D800F9D040EA0C0093F0000F01F0004C02BF84
:1005E800490011F4000F013BF9D041EA0C0195E7ED
:1005F8000CEAD15392EA0C0F08D142027FF47DAF86
:1006080093EA0C0F7FF470AF084676E793EA0C0F75
:1006180004D14B023FF44CAF08466EE730F0004C73
:1006280018BF31F0004CCAD130F000427FF45CAF03
:1006380031F000437FF43CAF5FE700BF4FF0FF3C71
:1006480006E000BF4FF0010C02E000BF4FF0010CC4
:100658004DF804CD4FEA40024FEA41037FEA226C8D
:1006680018BF7FEA236C11D001B052EA530C18BFAF
:1006780090EA010F58BFB2EB030088BFC81738BF14
:100688006FEAE17018BF40F0010070477FEA226C02
:1006980002D15FEA402C05D17FEA236CE4D15FEAFE
:1006A800412CE1D05DF8040B704700BF8446084632
:1006B8006146FFE70FB5FFF7C9FF002848BF10F1F3
:1006C800000F0FBD4DF808EDFFF7F4FF0CBF012038
:1006D80000205DF808FB00BF4DF808EDFFF7EAFFC2
:1006E80034BF012000205DF808FB00BF4DF808ED7D
:1006F800FFF7E0FF94BF012000205DF808FB00BF72
:100708004DF808EDFFF7D2FF94BF012000205DF8F7
:1007180008FB00BF4DF808EDFFF7C8FF34BF012004
:1007280000205DF808FB00BF4FEA4002B2F1FE4F1F
:100738000FD34FF09E03B3EB12620DD94FEA00239B
:1007480043F0004310F0004F23FA02F018BF404274
:1007580070474FF00000704712F1610F01D142025B
:1007680005D110F0004008BF6FF0004070474FF00F
:10077800000070477BB972B90029BEBF00204FF056
:10078800004106E008BF00281CBF6FF000414FF091
:10079800FF3000F057B8ADF1080C6DE904CE002920
:1007A80009DB002B1ADB00F074F8DDF804E0DDE962
:1007B800022304B07047404261EB4101002B1BDB70
:1007C80000F067F8DDF804E0DDE9022304B04042F8
:1007D80061EB4101524263EB43037047524263EBC2
:1007E800430300F056F8DDF804E0DDE9022304B025
:1007F800404261EB41017047524263EB430300F012
:1008080048F8DDF804E0DDE9022304B0524263EB66
:100818004303704753B94AB9002908BF00281CBFD1
:100828004FF0FF314FF0FF3000F00CB8ADF1080C7D
:100838006DE904CE00F02DF8DDF804E0DDE90223CF
:1008480004B07047704700BF10F8012B11F8013B46
:10085800012A28BF9A42F7D0D01A7047034613F8E6
:10086800012B002AFBD1181A01387047430803F0FE
:100878005533C01A00F03333800800F03330184481
:1008880000EB10104FF0013300F00F305843000E0A
:1008980070472DE9F04786468C460846089E15465F
:1008A80074461946002B40F0C2808542B2FA82F2A3
:1008B80045D94AB1C2F1200300FA02FC2EFA03F32B
:1008C800954043EA0C0C94404FEA154EA8B2BCFB85
:1008D800FEF8230C0EFB18CC08FB00F943EA0C4386
:1008E800994528D9EB1808F1FF3704D2994502D960
:1008F800A8F102072B44A3EB0903A4B2B3FBFEFC47
:100908000EFB1C330CFB00F044EA0344A04214D94C
:100918002C190CF1FF3304D2A04202D9ACF1020326
:100928002C44241A43EA07401EB1D4400023346003
:100938007360BDE8F0874746DDE76346F1E792BBA1
:10094800431B01214FEA154EAFB2B3FBFEFC200C4E
:100958000EFB1C330CFB07F840EA0343984562D9A9
:10096800EB180CF1FF3004D2984502D9ACF1020023
:100978002B44A3EB0803A4B2B3FBFEFC0EFB1C3311
:100988000CFB07F744EA0344A7424ED92C190CF193
:10099800FF3304D2A74202D9ACF102032C44E41B72
:1009A80043EA0040C0E7C2F1200320FA03F1954072
:1009B80090402EFA03F303434FEA154EAFB2B1FB52
:1009C800FEFC0EFB1C10190C0CFB07F841EA004159
:1009D800884504FA02F422D969180CF1FF3004D2D0
:1009E800884502D9ACF102002944A1EB08019BB269
:1009F800B1FBFEFC0EFB1C110CFB07F743EA01439D
:100A08009F420ED9EB180CF1FF3104D29F4202D954
:100A1800ACF102012B44DB1B41EA004192E760463E
:100A2800E3E76146F7E76046A3E76346B7E7834233
:100A380006D916B9002108467BE7C6E900E0F9E7C0
:100A4800B3FA83F78FB9834201D3724508D8BEEB56
:100A5800020460EB030301209C461EB9002168E7ED
:100A68003846FAE7C6E9004CF8E7C7F1200CBB4066
:100A780022FA0CF41C432EFA0CF120FA0CF3B840BD
:100A880001434FEA14490EFA07F5B3FBF9F81FFAC8
:100A980084FE09FB18300B0C08FB0EFA43EA0043EE
:100AA8009A4502FA07F240D9E31808F1FF3004D258
:100AB8009A4502D9A8F102002344A3EB0A0389B29C
:100AC800B3FBF9F809FB183308FB0EFE41EA0341B2
:100AD8008E452CD9611808F1FF3304D28E4502D90E
:100AE800A8F10203214443EA0040A0FB0298A1EBCD
:100AF8000E014145CE46434602D306D14D4504D2A8
:100B0800B9EB020E68EB04030138002EA6D0B5EB52
:100B18000E0261EB030101FA0CFC22FA07F34CEA1E
:100B28000303F940C6E9003198E74046C5E7434664
:100B3800D9E700000000000070B50C46032C1146F0
:100B480005461A4657D8072917D005D8CB1E012BBA
:100B58004DD96FF085040EE00A29FAD1036912789D
:100B68005B682121DB689847041E04DA284A294873
:100B780001210DF04EFB204670BD5B681068264AC7
:100B8800D917C0FB0231012B71F1000221DB234888
:100B980018181DA3D3E9002341F10001FFF7EAFD6E
:100BA80083B2022B1DD0042B1DD0082B1DD0102B77
:100BB80025D103231A492A6951F823101161526873
:100BC80014692846A4461B01BDE870403022232141
:100BD80060471448181861F100010BA3D3E90023FA
:100BE800DCE70023E6E70123E4E70223E2E7BDE8C8
:100BF800704007F05DB8BDE8704006F0E1BC6FF0EA
:100C08001504B8E7AFF300803AA395000000000090
:100C1800473C01089810010840420F009DD14A0046
:100C2800F8020020632EB5FF37B53449054634482D
:100C38000BF003FF034638B1324A334801210BF069
:100C4800E4FC002003B030BD30492D480BF0F5FE20
:100C5800034608B12E4AF0E72E4929480BF0EDFE6D
:100C6800034608B12C4AE8E72C4925480BF0E5FE75
:100C7800034608B12A4AE0E721480BF04FFE012855
:100C880004461AD10146274A1D4803F039FF28B106
:100C9800254A1D4801210BF0AFFCD2E7184822462F
:100CA800214604F0C3F8034608B1204AF1E7009052
:100CB8000246214612480BF038FE00211C4A104813
:100CC80003F01EFF014608B11A4AE2E70C48012268
:100CD80004F0ACF803460028E7D10090024601462C
:100CE80007480BF022FE0DB90548ABE70448294632
:100CF8000CF0E7F80028F7D00F4ACAE7780100207F
:100D08008C060020B21A0108781101086001002041
:100D1800E01A010848010020121B010830010020D8
:100D28003F1B0108D8000020671B01088E1B010823
:100D3800EC000020AD1B0108D41B010808B5FFF723
:100D480073FF40B1064802F0C3FB30B1054A0648BC
:100D580001210BF051FC002008BD0148FCE700BF51
:100D68008C060020F81B01087811010870B586B0C0
:100D7800174B019303A9002301A88DF80830ADF89B
:100D88000A3000F047F940B1124A134801210BF02C
:100D980033FC6FF0040006B070BD104800F096F800
:100DA80008B10F4AF1E70F4800F018FB68B90D4E7B
:100DB8000D4D094C304600F0F1FA0028FAD0012117
:100DC8002A4620460BF018FCF4E7084ADDE700BF86
:100DD800700B01083B1C010850100108380C010871
:100DE800551C0108C00B0108981C0108781C010853
:100DF800024A034801210BF0FFBB00BFBE1C0108DB
:100E08004010010807B501238DF807300648002275
:100E180000230DF1070108F06BFB002801DAFFF74A
:100E2800E7FF03B05DF804FBBC05002010B50446DD
:100E380088B083684021DB68984720B1134A14487A
:100E480001210BF0D9FBA36802AA1B6903212046E4
:100E5800984720B10F4A0E4801210BF0CDFB029BA9
:100E68008DF80430049B8DF80530069B8DF806300C
:100E780009480022002301A908F03AFB20B1074ADB
:100E8800034801210BF0B8FB08B010BDE11C0108B4
:100E980040100108FD1C010894050020BE1C010833
:100EA80070B5094D0446D5E9000201280E4672F1D5
:100EB800000105DB201A66EB0201C5E9004670BD9A
:100EC80000200146F9E700BFC00C0020F0B589B04A
:100ED800002400AFC7E90244C7E90444C7E906444F
:100EE800C7E9004405460EF068FF0346C0B96C46E2
:100EF80088B029686A463648C2E905014FF400718E
:100F08009183344942F8101F33484FF4E25101F0FD
:100F180057F9A5466FF0120420462437BD46F0BDA8
:100F2800042607F118020A212846C7E906640AF0D0
:100F380014FE044620B10146284809F0B9FCEBE745
:100F48000321C7E9021007F1080228460AF005FE46
:100F5800044610B101462248EFE70A23C7E90430E6
:100F680007F11002314628460AF0F7FD044610B191
:100F780001461C48E1E705233B80AB689B686BB1E1
:100F8800194A394628469847061E0ADA174A124867
:100F9800334601210BF039FB3446BDE76FF05706A5
:100FA800F4E7134B7B60AB689B686BB12846114A2A
:100FB800391D9847051EAFDA0F4A07482B4601210D
:100FC8000BF023FB2C46A7E76FF05705F4E700BFAB
:100FD800181D010803000001401001082F1D010819
:100FE800531D0108741D01080D0E0008941D010809
:100FF80001000300350E0008B21D010808B507F00E
:101008009DFEBDE80840014601480AF0DDBF00BF6B
:10101800E51D01082DE9F041044600AF00680D46C2
:101028000EF0CBFE0346206843B9016835480AF044
:10103800CBFF6FF01200BD46BDE8F081E38821794F
:1010480043F48032D0F810C0D0F808E013F0010F54
:101058004FF00106DCF8003006FA01F614BF3343FE
:10106800B343CCF80030DEF80030984700282179E7
:10107800206817DA6C468AB003686A462248D1614C
:10108800C2E905034FF400731384204B42F8103F64
:101098001F4800234FF4115101F092F86FF004003B
:1010A800A546C8E782680369D2F81880B8F1000F2E
:1010B8000AD12368196823796C468AB06A461548AC
:1010C800D361C2E90501DDE71B68012606FA01F2D2
:1010D8001A4214BF4FF000734FF080634FF0A072B4
:1010E800C0470028E5DB23790B4A06FA03F3C5E974
:1010F800012320688368DB6913B132462946984783
:10110800002098E7FB1D0108211E010804000001CA
:1011180060100108401E010805100008024A034833
:1011280001210BF069BA00BF791E010818110108E6
:1011380007B50B46044800920221044A0BF06FFAE7
:10114800002003B05DF804FB18110108971E010880
:1011580008B5014605480022002308F0C9F918B16E
:10116800BDE80840FFF7DABF08BD00BFE40500206E
:1011780080B50D4A0D4B006800AF8AB0002918BF32
:1011880013466A460A49D3610A4B13620A4BC2E9FD
:10119800051042F8103F094800234FF4235101F08D
:1011A8000FF8BD4680BD00BF5F200108CE3401089E
:1011B800C11E010800020103040000021811010801
:1011C800F8B50B78092B96BF1F4A204B52F82330ED
:1011D80000AF6E4688B005460C466A461C49C2E90F
:1011E80005134FF4007393831A4B42F8103F002302
:1011F80019484FF4E65100F0E3FF2378052BB54674
:1012080005D16368154A144803210BF0FEF92846F6
:101218000BF0B3FBB0B1237843B9284602F098F934
:1012280020B10F4A0C4801210BF0E6F92478012C73
:1012380008D1284602F0CEF920B10A4A06482146CC
:101248000BF0DAF9BD46F8BD38140108DF1E0108B5
:10125800E11E01080300000118110108F21E01082F
:101268000A1F01082A1F010808B5044A0448022178
:101278000BF0C2F96FF0850008BD00BF4B1F0108D5
:10128800181101081FB50023CDE9013303931F4846
:101298000022002301A908F081F9044688B9BDF8A5
:1012A8000A309A1E032A2AD8DFE802F0020E172015
:1012B800174B01221A70039A002A0CBF00225222EF
:1012C8005A70204604B010BD114B01221A70039ABF
:1012D800002A0CBF00225122F2E70D4B03221A709C
:1012E800039A002A0CBF0022CD22E9E7084B03220B
:1012F8001A70039A002A0CBF0022B522E0E7054ABB
:10130800054803210BF081F9DBE700BFE405002065
:1013180080190020631F01081811010807B5002370
:10132800ADF804308DF806308DF8033018480022E7
:10133800002301A908F032F970B9164B02221A707D
:101348009DF8052052429A709DF804205242DA70A6
:10135800002003B05DF804FB0F48002200230DF1C4
:10136800030108F01BF90028F3D10FF0A8F80A22AE
:101378000023FFF74FFAFFF793FD40F2F513984269
:1013880071F1000122BF034B4FF481721A80DFE72D
:101398009405002080190020BC05002038B50C4DAC
:1013A80000230446C5E90033FFF7B8FFFFF76AFFDB
:1013B80020462A4605210BF02AFE041E05DA054AB6
:1013C8000548234601210BF020F9204638BD00BF0F
:1013D80080190020771F010818110108B0B50446CC
:1013E80000AF0EF0EAFC0346A8B921686C4688B045
:1013F8006A461F48C2E905014FF4007191831D49EF
:1014080042F8101F1C484FF4E25100F0D9FEA546DF
:101418006FF012040DE02046184B194968220BF0B2
:10142800F9FD044640B1174A0346012112480BF062
:10143800ECF82046BD46B0BD1348FFF77FFC0546D3
:1014480050B9124A0C4801210BF0D6F8104A0A4844
:1014580001210BF0D1F8DBE70BF08FFA0028E8D177
:10146800284602F075F80028E3D00A4AEAE700BFE8
:10147800181D01080300000118110108900100203F
:10148800EA1F0108931F0108C9110008B51F0108C8
:10149800D51F01080A1F01082DE9F04F91B08407F4
:1014A800009302F004030293C2F3C20303F10103A1
:1014B800DDF86880039205460E46059340F0BA8130
:1014C800041D30B1072909D86FF01B0011B0BDE821
:1014D800F08F01F007063444C6F10806009B4FF070
:1014E8000009591E4FF0040A4FF0FF330193CDF85D
:1014F80010904F46CB4653460DB1009A226005988E
:10150800002800F3E8809848009A824203D397485D
:101518008242C0F0E080039AA4EB050E92074FEADE
:101528009E0000F103810F2F00F2B180002D00F022
:10153800058107F140020DEB020C019A0CF8200C12
:101548000CF8102C049801300490E7E07A285DD854
:101558004B280ED8472859D829282DD8252852D0C5
:1015680054D820287AD02338D0F1000B4BEB000B4D
:1015780074E04C382E2849D8DFE800F07048484815
:1015880048484848484848484B48484848484848D0
:101598004859484B4B595959704B6D487048184B2E
:1015A800184848827F4B48484B487F0000204FF03E
:1015B800000B4FF0040A38E02A38C0B2012202FAC0
:1015C80000F010EA0E0F49D110F0625C2FD110EA3A
:1015D800020B43D06046013C5444B4FBFAF40AFBC6
:1015E80004F4002D61D0A3EB050CA444B4453FF6E8
:1015F8006BAF002868D1042B47D158F8043B23600F
:10160800043404232AE0019A013A01924FF0000BB6
:1016180024E011F8010C6C2834D111F8023C0020A8
:101628006C2B8346C5D14FF0080A5346D3E708F11F
:10163800070828F007080734F8E802AB24F0070485
:1016480035B106982044B0423FF63EAFC4E900AB3E
:1016580008344FF0000B4FF0080A534611F8010FF9
:10166800002878D0BBF1000F7FF470AF2528F5D1A2
:10167800019B013301934FF0010B4FF0040AECE793
:10168800584694E700208346A5E7082B02D06FF060
:1016980015001BE708F1070828F00708F8E80223F7
:1016A800C4E9002308340823D8E768B9042B02D119
:1016B80008F10408A4E7082BE9D108F1070828F085
:1016C800070808F10808EDE7059A013A059258F865
:1016D800042B009210E7039A900720D5A4EB050E7F
:1016E8004FEA9E004FF0010CBEF5007FCFD20F2FBE
:1016F800CDD8F5B107F140020DEB020EC0B2019A48
:101708000EF8200C0EF8102CBCF1000F3FF41AAFA5
:1017180060F07F000EF8200C09F101090137C5F1CE
:101728000802043406924FF6DA7E97E74FF0000C71
:10173800DAE7BCF1000F01D00136EFE70298023674
:101748000028EBD10098CDE90631FFF787F8DDE9ED
:1017580006310644E2E7631BB3F5806F97D23DB9C3
:10176800A6F10804E018B1E6D0090108944301087D
:10177800029A28609B082B709DF81030C2B1EB705C
:1017880085F80290B9F1000F05D008A80022C5F12C
:10179800010C97420ED1C5F101030DF120084FF05D
:1017A800000A01930DF1300B574512D1601B8DE6ED
:1017B8006B70E5E710F8013B190608D50CEB040E31
:1017C800B64503F07F033FF67FAE04F8013B0132D4
:1017D800DFE7B9F1000F03D098F90020002A17DBE2
:1017E800029BD3B11AF80B2004F8012B0022019BAD
:1017F80018191044B0423FF667AE98F8000004F894
:10180800010B0099039220460EF0F8FF039A144446
:101818000AF1010A08F10108C6E798F8002055F80E
:1018280022300093029B45F822300098FFF716F803
:10183800421CDCE76FF00D0048E600BF2DE9F04FD1
:1018480097B000AF90F802A0D7F880B03B62CBF316
:10185800C0030446FA62BB61894641B945780078FD
:101868000AEB800020444D4517D8A0EB0409E37823
:10187800FB61BAF1000F02D01BF0010F16D1FB6912
:1018880053BBFB6A1BB13A6A4946204698474D4606
:1018980028465C37BD46BDE8F08F461C3046FEF74B
:1018A800DDFF0130304409F10109DCE72378626883
:1018B8007A62FA6A9900796104EB8301002A40F0A0
:1018C80000814D460E4601EB0A094FF000084E45CF
:1018D8004CD101EB0A0610E01BF0020FD1D023789F
:1018E8009A007A6162687A62FA6A04EB8301002AD4
:1018F80077D14D4601EB0A0690461BF0050F0CBF49
:1019080002230123FB62FB6906EB430A0BF0020387
:10191800BB625645BCD016F8021B16F8013C54F8B9
:101928002390994B994502D3984B994536D3BB6977
:10193800002B40D0786A0AF020FB00283BD0E9460B
:101948008AB06A46924B53617B6AC2E906314FF40A
:10195800007313848F4B42F8103F8F4800234FF4D5
:10196800125100F02DFC023DCD46D2E716F8013B9E
:10197800F96254F82300FEF771FFD7F88430F96A4A
:1019880001304BB1D7F8883098453EBFD7F884303E
:1019980023F8180008F10108054498E7BB6923B14A
:1019A800786A0AF0EAFA0028C9D11BF0010F05D1BC
:1019B800FB6AED1AADE7BB6A002BAAD04846FEF7D2
:1019C8004DFFD7F8843053B1D7F8883098453FBFDA
:1019D800D7F88420431C22F8183008F10108054480
:1019E80097E7BAF1000F72D01BF0040672D0D04608
:1019F800002607F1480052463B61B9620EF0FEFE30
:101A0800B96A3B6901EB0A02BA62FA69F9695200DC
:101A1800FA60BA6A02EB41023A610BF00202BA605C
:101A28003A69B96A8A4257D162787A621BF0020F22
:101A380032440CBF4FEA580100211BF0010FD2B20B
:101A480040F09F801BF0040F14BF40460020BB618C
:101A58006270A070E1703A6A7969FB6A204698471B
:101A6800051EFFF615AFBB6923707B6A6370FB69BF
:101A7800E37041463A6AFB6A84F802A007F148001D
:101A88009847B0F10008C0F2BB807B693A6AA9EBBD
:101A98000A01C91AFB68C91AD7E90A039847002836
:101AA800C0F2B080A84408EB00054FF0000B07F126
:101AB800380AB34572D300213A6AFB6A0846984748
:101AC800E6E656464FF0000807F1380093E7564619
:101AD800D04697E7B04695E7BA6A12F8021BBA6291
:101AE80012F8015C284A54F82500904202D3274A8C
:101AF80090421ED3BA6932B1786A7B600AF03DFA27
:101B08007B6800288CD1BA6802BB08F1280207F16B
:101B1800300C08F10100944407F1580252FA80F0A1
:101B280008F102080CF8101C5FFA88F800F8105C3D
:101B380076E7BA693AB1786A7B600AF01EFA7B6880
:101B480000287FF46DAF1BF0010F09D006F12802C1
:101B580007F13000711C161806F8205CCEB25FE75A
:101B68001BF0040F3FF45CAF08F1280207F13000C6
:101B780008F1010102EB000808F8105C5FFA81F82F
:101B88004EE7002063E700BFD0090108944301082D
:101B98000121010804000001581001081BF80A304F
:101BA80087F8373054F82390D7F884302BB3D7F818
:101BB80088309B4521D2D7F8843033F81B803A6AA5
:101BC800FB6A012107F13700984700281ADB054412
:101BD800B8F1000F06D14846FEF740FE00F10108B3
:101BE8001FFA88F83A6AFB6A41464846984700282F
:101BF80008DB05440BF1010B5BE74FF00008DEE75B
:101C0800454645E6054643E6014B1860704700BF68
:101C1800B401002080B505460E461746984608F0E0
:101C280007FB03460EF0C6FEDFF81890044649F895
:101C38000030424630463946A84754F8090001F0BA
:101C480075F800BF08000000034A536823F0020338
:101C580053600020704700BF002004E0064A136864
:101C680043F010031360054B054A1A60054A536890
:101C780043F001035360704700200240EC0300204A
:101C880000127A00002004E02DE9F047DFF85880C0
:101C9800044607464FF0010914B93846BDE8F087F5
:101CA80094FAA4F5B5FA85F509FA05F32E0108EBBF
:101CB80005156FEA030A24EA03042B7B002BEBD0FB
:101CC80058F806301B694BB9464404227368284605
:101CD800196807EA0A0700F05FFADDE7284698471F
:101CE8000028D9D1F0E700BF8011010830B51049AC
:101CF800104889B000220EF029FC0F4D0F49002230
:101D08000023CDE9062300240E23CDE90334CDE9D1
:101D180001440B4B00944FF44072284607F0E8FF4B
:101D2800084928460EF08FFA204609B030BD00BF9A
:101D3800511D000850110020C80C0020401E002032
:101D480045200008B5210108014807F083BD00BF00
:101D5800340600202DE9F04780461E480F460AF059
:101D6800BDFB064678B300252846BDE8F087237BEF
:101D78006BB12368DB680BB12046984723681B6961
:101D8800CBB9636804221968204600F005FA0136C9
:101D980010344C45EBD3B8F1000FE5D0002DE2D05C
:101DA8002846FFF771FF0546002FF7D00021642071
:101DB8000EF0FBFAF2E7204698470028E1D00AFA2D
:101DC80006F31D43E3E7044CDFF8109005464FF097
:101DD800010ADEE798190020801101089011010816
:101DE800014B53F8200070477414010808B50346E6
:101DF80008462BB1044A136000F078FC002008BDA7
:101E08006FF01500FBE700BFB801002010B5044CC7
:101E1800237813B9034807F01DFD0123237010BD73
:101E2800061E00203406002010B504460B480AF0B0
:101E380055FB5CB1BFF35B8F094B53E8001F0139B9
:101E480043E80012002AF8D1BFF35B8F05480EF073
:101E580089FB0548BDE8104007F0FCBC901900203C
:101E68009419002050110020340600200020064B51
:101E7800BFF35B8F014653E8000F43E80012002AC6
:101E8800F9D1BFF35B8F70479019002070B5FFF749
:101E9800EDFF084C084E0546B44200D370BD636898
:101EA8005B792BB123685B6813B1294620469847B4
:101EB8001034F1E7801101089011010810B5044CA5
:101EC800044920460AF090F9034B1C6010BD00BF7E
:101ED800280500206014010888190020084A0948CC
:101EE80008B500231370084A1360084A4FF47A7142
:101EF8001360FFF77BFFBDE80840FFF7DFBF00BFB7
:101F0800071E0020FFC40008901900209419002023
:101F180001460022014800230AF087B9280500205D
:101F280001480AF020BA00BF28050020024B0146EC
:101F380018680AF06CBA00BF8819002001480AF036
:101F4800A1BA00BF2805002070B5254B18780028D5
:101F580044D0FFF7E5FF054690B1BFF35B8F214BF7
:101F680053E8001F013943E80012002AF8D1BFF3F3
:101F78005B8F1D4C1D4EB44226D32846FFF7D6FF73
:101F88001B4B1C4C1B68002B12DD0EF098FA0A2222
:101F98000023FEF73FFCD4E90032C01A40F2E933CF
:101FA80061EB0201984271F1000101D3FFF76EFF66
:101FB800D4E9003213F57A7342F10002C4E9003221
:101FC800BDE87040FFF7BABF63685B7923B1236847
:101FD80029461B68204698471034CCE770BD00BFDF
:101FE800061E002094190020801101089011010894
:101FF800901900204811002070B50D4D297861B95D
:102008000120FFF7A7FE0B4C0B4EB44206D3FFF797
:102018009BFF0028FBD101232B7070BD63685B799F
:102028001BB1236820469B6898471034EDE700BF32
:10203800071E0020801101089011010800212DE9D8
:10204800F0470846FFF786FE044658B34FF4FA787F
:102058004FF000090EF0AEFC1B4B1C4A1B581360D6
:1020680033B11B4B1B68092B02DD1A4807F0F2FB42
:10207800194FDFF860A0002544B12046FFF704FEA1
:10208800044618B94FF0FF384FF0FF39FFF75CFFEF
:10209800064628B9B5B942464B46504607F00EFCED
:1020A8003546E9E74FF0FF384FF0FF39D2E72B68A4
:1020B8009B691BB100221146284698471035BD423E
:1020C800F5D3E8E7054DFAE7080000008C19002071
:1020D800941900203406002090110108801101088D
:1020E80013B518480AF0FAF9174B1B7873B1EFF3D8
:1020F8001184102383F31288BFF36F8FFFF724FF37
:1021080084F31188BFF36F8F02B010BD0F4B1B68AB
:10211800002BF9D050B900220023CDE900230C4848
:1021280042F21072002308F049FBEDE70928EBD1D1
:1021380007480EF017FA074802B0BDE8104007F04C
:1021480089BB00BF94190020071E00208C190020AD
:10215800501100203406002010B5064B1B680446B9
:1021680098472146A06004480AF0DEF8BDE8104010
:10217800FFF7B6BFB801002028050020044A054B28
:102188009B1AB1EBD30F34BF52F8310000207047CF
:102198004010010880110108084BC31A10B41B1124
:1021A80044680133237143689A714368196043682E
:1021B80001225A7110BCFFF729BE00BF8011010827
:1021C8002DE9F04F8FB004AFC1F34A28B8600D462F
:1021D80091467B600C0DB8F1000F63D0002607F123
:1021E80014034FF0040B4FF00A0AC7F80C80C7E934
:1021F80007667E620193CDF808B0CDF800A007F11C
:102208001C03F96832464846FFF718FBB0F5006F23
:1022180003461CD36C468AB0D9F8041004AB264890
:10222800C3E9050140F2FF71D9611A464FF4007104
:102238001984224B42F8103F214833464FF412517B
:10224800FFF7BEFFA5462C37BD46BDE8F08FC0F3AB
:102258000A0804F11700184420F0070080083B60C2
:10226800FFF756FE68F35325044690B13B68154ABC
:10227800C7E9083600F1100107F11403F961CDE947
:1022880000A3CDF808B0F96807F11C034846FFF72A
:10229800D5FA68F353257B68B9682A4620460AF0C0
:1022A8005BF9D0E704F1170020F007008008FFF77A
:1022B8002FFE0446EDE700BFCA2101080400000113
:1022C800A010010835C500082DE9F04F87B0DDE9F9
:1022D8001279DDE9105A0446039193469846BFB136
:1022E800CDF800903B46524610210020CDF81490BE
:1022F800FFF7D2F8B0F5006F06460AD3184A194816
:1023080040F2FF73022107B0BDE8F04F0AF07DB933
:102318003E4605F11700304420F0070004F007049A
:102328008008FFF7F5FD0BF0070BE40044EA8B1477
:1023380044EA462444EA0554054640B13FB1CDF885
:1023480000903B46524631461030FFF7A5F80399F6
:1023580043462246284607B0BDE8F04F0AF0FCB8CD
:1023680009220108A0100108406820B1034BC01AD7
:1023780040F3CF0070474FF0FF307047401001081E
:102388000EB403B503AB014653F8042B044801937C
:1023980000F07AFF02B05DF804EB03B0704700BFAD
:1023A80075C60008CA0605D48B064CBF0249034906
:1023B800FFF7E6BF704700BF42220108412201082B
:1023C8002DE9F04F89B09B46149B06939DF84CA0CD
:1023D800159B0593169B179E049304460D4690463D
:1023E800BAF1000F00F09D8006F4807307930AF09D
:1023F8009BF806F00209024600283ED09149204683
:10240800FFF7BEFF0746B9F1000F08D016F0440FDA
:1024180035D18D492A462046FFF7B2FF074406F01A
:10242800010353B1894B8A4953F82A20894B204626
:10243800002A08BF1A46FFF7A3FF06F48073002B93
:1024480049D006F00803002B63D1B8F1000F66D01D
:10245800814942462046FFF793FF0546069B3D44C7
:10246800002B6DD1049B002B73D1F30700F1E4809E
:1024780031462046FFF796FFD8E00746C3E7774B7B
:1024880018680028CAD0764B4FF47A791B68B5FBD8
:10249800F3F54FF46163B5FBF0F100FB115509FB4F
:1024A80005F54FF03C0CB1FBF3F203FB1211B5FB41
:1024B800F0FEB1FBFCF300FB1E550CFB131109FBEE
:1024C80005F50091B5FBF0F56649CDE901E5204633
:1024D800FFF756FFA2E706F00803EBB1624B63492A
:1024E80053F82A202046FFF74BFF0546B8F1000FA6
:1024F80005D0594942462046FFF742FF0544BBF143
:10250800000FABD05A495A462046FFF739FF054419
:10251800A4E74FF0000BE1E706F00805E6E74546BB
:102528009CE7BBF1010F069B06D1002B64D1049BED
:10253800002B7BD000250CE0002BF8D04D485CE048
:102548004D48069B4D49224609F0E6FC049B002BAA
:1025580068D0DFF82C81DFF82C91049F3146102FCA
:10256800204628BF1027FFF71DFF4FF0000B5D45E1
:1025780045DC059B49461A782046FFF701FF4FF0D6
:10258800010B1BF0070F03D141462046FFF7F8FE69
:102598005F453BD9059B494613F80B202046FFF7BA
:1025A800EFFE0BF1010BBBF1100FEAD136492046C3
:1025B8004FF0000BFFF7E4FE5A46059B9A5CA2F128
:1025C80020015F2928BF2E2230492046FFF7D8FE78
:1025D8000BF1010BBBF1100F1DD01BF0070F03D13E
:1025E80041462046FFF7CCFE5F455A46E5D84146AE
:1025F8002046FFF7C5FEEBE71F485546A1E74146D1
:102608002046FFF7BDFE0BF1010BB0E7204920463D
:10261800FFF7B6FEC5E7059B3B440593049BDB1B10
:1026280004939AD1BAF1000F7FF41FAF204609B086
:10263800BDE8F04F0AF00DB8064A05492046FFF7F5
:102648009FFE15E7492201084D220108841401085C
:10265800EF1E01084422010872220108A019002077
:102668009C190020562201089814010876220108B6
:102678007C220108ABC6000875C600089132000824
:1026880089220108812201088B2201088D22010874
:102698008722010873B542F20F738B4228BF0B469D
:1026A80005680F4A04460521684608F013F963686F
:1026B8000C495B6806460B22284609F0BCFF636894
:1026C8003246694628465B6809F0B5FF63680649E3
:1026D8005B681B22284609F0AEFF02B070BD00BF40
:1026E800F1350108AC22010890220108074A0021AF
:1026F8000123904206D8064A01B901231360054B0D
:102708001860704740085B000121F2E740420F0063
:102718009C190020A0190020F8B5074F0D46044663
:102728004618B44201D12846F8BD14F8011BBB680D
:1027380001485B689847F4E7AC0B0108014B03605C
:1027480000207047E01401082DE9F047064600AF65
:102758000C46002936D0E9468AB0D1E90012A368B0
:102768006D462148A8464FF0050AC5E90501C5E9A7
:10277800072348F810AF1D48424600234FF4215163
:10278800FFF71EFDCD46D4E903126369AD4618482C
:10279800C5F810A0C5E90501C5E9072313480023BA
:1027A80042464FF42151FFF70BFDCD46E369114A2C
:1027B8000E48012109F029FFA3690F4A0B4801219E
:1027C80009F023FF012E07D1EFF305830B4A0748D1
:1027D800103B314609F019FF2146304606F09CFCB3
:1027E800BD46BDE8F08700BFF2220108D8100108F5
:1027F80021230108502301085F2301088D230108C4
:1028080008B5034B1B689847BDE8084000F026B898
:10281800C401002030BFFFF7FDBF00BF2DE9F04124
:102828000B4EDFF8308006EB0807CC1B0546324616
:10283800094920460DF0E2FFA01942460021083C54
:102848000DF0EAFF2C6707F10800BDE8F08100BF32
:1028580000000000080000009C110108074A936866
:1028680093F90E10002907DB526993421FBF044AEF
:10287800536843F080535360704700BFC81D002061
:1028880000ED00E070B5294C06460D462848294958
:1028980009F087FFA36AD9043CD52548264909F0E1
:1028A80080FF1720A36A1A0504D52148234909F097
:1028B80078FF18201D4CA36A9B0512D51C48204997
:1028C80009F06FFFA36BA26A100409D51D4A1848C6
:1028D800012109F09AFE1EB1A36A23F40043A36202
:1028E8001920124CA36A590504D51148164909F054
:1028F80058FF1A20A36ADA050ED50D48134909F0C6
:1029080050FF1B20094A936A43F47F4393620023D4
:102918002B7070BD1620C5E7A36A9B04F2D5044846
:102928000B4909F03EFF1C20ECE700BF00ED00E07A
:10293800D8100108A0230108B6230108C7230108FD
:10294800DA230108F32301080824010823240108D5
:102958003B24010810B5204C2049214809F021FFEB
:10296800A36A990136D51E481E4909F01AFF1E2090
:10297800A36ADA0104D51A481B4909F012FF1F207F
:10298800154CA36A1B0304D51548184909F009FF1B
:102998002120A36A590304D51148154909F001FFFC
:1029A80022200D4CA36A9A0304D50D48114909F059
:1029B800F8FE2320A36ADB0304D509480E4909F071
:1029C800F0FE2420044A936A6FEA03436FEA134334
:1029D800936210BD1D20CBE700ED00E06A240108DA
:1029E800D81001088224010895240108AF240108A1
:1029F800CD240108F22401080C2501082DE9F8432B
:102A0800364D8046894636483649174609F0C9FE8C
:102A1800AB6ADE0627D53449314809F0C2FE1124D5
:102A2800AB6A1D0704D531492D4809F0BAFE1224B6
:102A38002A4DAB6A980718D52D49294809F0B1FEE7
:102A48006E6BAB6A190646D52A4A254833460121DA
:102A580009F0DBFDB9F1000F03D0AB6A23F0800366
:102A6800AB62132403E01024DAE76FF015061B4D60
:102A7800AB6ADA0704D52049194809F092FE1424F4
:102A8800AB6A9B0604D51D49154809F08AFE152432
:102A9800124B9A6AD50602D49A6A90070AD55B68DF
:102AA800190507D54146304600F022FA10B180F3E7
:102AB80009880224094B9A6A920642BF5A6A22F48C
:102AC80000525A629A6A42F0FF029A6200233B70EF
:102AD8002046BDE8F8836FF01506C2E700ED00E078
:102AE800D8100108372501084D250108C72301081A
:102AF8008025010898250108AE2501083B24010816
:102B08002DE9F041664B8AB0D3F8048000AF044643
:102B1800C8F30805002686F31188BFF36F8F02F00B
:102B28007F43B3F17F4F07D102F00C03082B12D17A
:102B38005C495D4809F035FE002634460023FB71E8
:102B4800EB1E092B00F28A80DFE803F00A80837C01
:102B580088888888888610074CBF0C460126EDE7D0
:102B6800524951484E4D09F01CFE0023FB71EB6A97
:102B78009A0705D54E494C4809F013FE002332E068
:102B8800EB6A002B01DA4B49F5E7EB6A5B00F5D5F8
:102B98004949454809F005FE6B69A26943F4807309
:102BA8006B61BFF34F8FBFF36F8F6B6932F8022CE5
:102BB80023F480736B61BFF34F8FBFF36F8F4DF6B4
:102BC80002739A4208D0AB6ADBB273B3FA1D0121D3
:102BD8002046FFF713FF37E02368384A32480121BF
:102BE80009F013FD2368FA79DAB907F1080504F149
:102BF800200C206861682A4603C2083464451546DB
:102C0800F7D17A6A002E45D0C2F3080121B96FEADC
:102C180052226FEA42227A6207F108011846FFF74A
:102C280093FD2837BD46BDE8F081AB6A13F47F4FAA
:102C380004D0F91D0120FFF725FE05E0AB6AB3F5C6
:102C4800803F9BD3FFF786FE0346CCE7FA1D0021A1
:102C5800BEE7F91D0020EEE719498CE7194A1A4B1F
:102C680018F4F87FE8468AB018BF13466A46174931
:102C7800C2E905134FF400731384103D144BD5615A
:102C880042F8103F084800234FF41151FFF798FA13
:102C9800C54673E722F4FF7222F00102BBE700BFCA
:102CA80000ED00E0FB250108D810010826260108E0
:102CB8003D2601085E2601086C2601088B260108BE
:102CC800A7260108E2250108CD250108CB26010821
:102CD80004000001044B5A6942F010025A615A6913
:102CE80022F008025A61704700ED00E0EFF3088017
:102CF800EFF3098101B57246FFF702FF01BD00BF7E
:102D0800102080F3118808484FF40461401880F3BC
:102D18000988EFF314800221084380F31488BFF375
:102D28006F8F00F0A5F8000000280020084B9B6872
:102D380083420BD1EFF3058343B1064B5A6842F047
:102D480080525A605A6A22F400425A6207F076BAF0
:102D5800C81D002000ED00E015498A684FF03000DA
:102D68001044EFF3098C80E8F01F102080F31288DC
:102D7800BFF36F8F0F4F4FF000664A698A603E605D
:102D88004FF07004141920680B4C2060506F00231A
:102D9800536780F3118804B5104600F00DF9BDE8BB
:102DA800044002F1300090E8F01F8CF30988704766
:102DB800C81D002004ED00E0C81900201EF0040F13
:102DC8000CBFEFF30880EFF30980816911F8021C4A
:102DD8000229FFD001B5724609F0DFFC01BD00BF32
:102DE80040B2002807DB044A4109012300F01F0014
:102DF800834042F82130704700E100E040B20028EB
:102E08000CDB4309064900F01F00203301228240F1
:102E180041F82320BFF34F8FBFF36F8F704700BF78
:102E280000E100E0054B420900F01F0053F82220A2
:102E3800012303FA00F01040704700BF00E100E0F2
:102E480040B20028A8BF00F1604001F10101B8BFFD
:102E5800064B4FEA0111ACBF00F5614000F00F00CE
:102E6800C9B2B4BF195480F80013704714ED00E0DC
:102E78000F4A08B50F4B22F07F029A60BFF34F8FBD
:102E8800BFF36F8FD3F8882022F47002C3F888202C
:102E9800EFF3148323F0040383F31488BFF36F8FD5
:102EA80006F026FA07F0E4FA00F05CF806F064FA97
:102EB8000000000800ED00E042F8203C009B42F8CA
:102EC8001C3C0A49019B42F8183C029B42F8143CFE
:102ED80021F001014FF0807342F8043C42F8081CCD
:102EE8000023203A02654367704700BF1D1C000895
:102EF800094A0346906870B113F1160F006E05D0A9
:102F0800A0F140029A4205D8834203D2814228BFE9
:102F18000020704700207047C81D002008B51546DE
:102F2800094A0A4B9060026F1A600E4600F044F896
:102F38002C4686F309880020054B98472046002137
:102F480000220023034C2047C81D0020C819002078
:102F5800BBC700081D1C0008014B10221A617047EE
:102F680000ED00E0044800231021C2180133522B61
:102F780082F80013F9D1704700E100E008B5EFF3DB
:102F88000583064A103B02EBC30152F83300496837
:102F98008847BDE80840FFF761BC00BF9C0C0108EA
:102FA800024B034A0348012100F08AB800A0002020
:102FB80000000020E0140108026E054B403A1A6038
:102FC800044A4021C3E901121846012100F082B8E1
:102FD800CC19002000000B1508B503461048D0F89E
:102FE8009020C2F30722013A934207D90D480E4AAE
:102FF800012109F00AFB6FF0150008BDC0F89830F0
:103008000A6822F01F021A4342F01002C0F89C20FE
:103018008A6842F00102C0F8A0201846EDE700BF18
:1030280000ED00E0C0100108E2260108F0B50E46E8
:1030380085B01F4604460025B5420DDA606810B316
:1030480097B1431E18420AD0104A11482B46012155
:1030580009F0DBFA6FF01502104605B0F0BD1F2825
:10306800F2D921680B42EFD12368019309F0B5FB2F
:10307800A36801A90343D0B20393FFF7ADFF10F192
:10308800160FE7D0421C01350C34D5E70827010894
:10309800C0100108044B0522C3F89420BFF34F8FDA
:1030A800BFF36F8F704700BF00ED00E0BFF35F8F85
:1030B800024B0022C3F89420704700BF00ED00E0E7
:1030C80010B5034C01232278FFF7B0FF207010BD24
:1030D800091E002008B50B4A00231278FFF7A6FF47
:1030E80010F1160F07D0084A0021D2F89030C3F328
:1030F8000723984200DB08BDC2F89800C2F8A01068
:103108000130F2E7091E002000ED00E02DE9F04350
:1031180057485849D0F890300D68C3F307239D42AB
:1031280085B000F2A180FFF7C1FF496800229542EF
:1031380001F10C011AD1504C504F25706846FFF729
:10314800FDFADFF83C81DFF83C9106460025AE42E7
:103158001FD1237846490020D1F89020C2F30722D6
:1031680093427BDBFFF796FF00204CE0C0F89820E5
:1031780051F80C3C23F01F03134343F01003C0F82D
:103188009C3051F8043C43F00103C0F8A0300132F0
:10319800CDE7009800EB05114FEA051CCB683B40D2
:1031A800B3F5000F44D00AD8B3F5001F2ED0B3F5FD
:1031B800800F34D0B3F5801F10D00135C7E7B3F1C5
:1031C800807F3ED0B3F1007FF7D150F80C3088688B
:1031D8004A6809F002FB40F4802009E050F80C30FE
:1031E80088684A6809F0F9FA40F0885040F43020BD
:1031F800039001A92078CDE90123FFF7EDFE00280F
:1032080028DA6FF0150005B0BDE8F08350F80C30EF
:1032180088684A6809F0E1FA40EA0800E8E750F8E7
:103228000C3088684A6809F0D8FA40EA0900DFE7F4
:1032380050F80C3088684A6809F0CFFA40F082707C
:10324800D6E750F80C3088684A6809F0C6FA40F0AA
:103258008870CDE7237801332370AEE7C1F8983042
:10326800C1F8A000013377E74FF0FF30CBE700BF8C
:1032780000ED00E0EC140108091E00200000F0FF3A
:103288000000081100000207F0B587B007460E4697
:1032980014460021102268461D460DF0BDFA02238F
:1032A8008DF802302A46054B019321466846CDE940
:1032B800047607F0D7FB07B0F0BD00BF03C80008CD
:1032C80008B5024B1B689847002008BDD819002094
:1032D800034B044A1860937843F0020393707047D5
:1032E800D8190020C801002008B50649064821F071
:1032F8000701C1F1005202F5204208F0D0FD00207C
:1033080008BD00BFF5410020DC19002070B54169F7
:10331800857A0C4E044659B1437ADB0706D4242338
:1033280003FB0563DB691B689B689847002363619F
:1033380005EBC505214606EB8500BDE870400CF09D
:10334800EBBE00BF44060020024B242202FB0030E3
:10335800704700BF44060020827A064B242101FBF7
:1033680002331A6A1B7D1B33801A23F00303B0FB58
:10337800F3F070474406002038B5074B827A2424BE
:1033880004FB0233DB69D3E901240C601568FFF7FD
:10339800E3FF04FB005038BD440600202DE9F0434C
:1033A80085B005466846039190461C460DF089F89D
:1033B800DDE90067EFF31189102383F31288BFF367
:1033C8006F8F6B8A002B41D02A8A9A4225D9002216
:1033D8000023284606F00CFA0446F0B189F3118858
:1033E800BFF36F8F039B002B41D032463B466846A4
:1033F8000DF08BF8A27A264B242101FB02332046DC
:10340800DB691B6803A91D68DDE90023A847606123
:1034180070BB2046FFF77AFF24E0698A4B1E6B8257
:1034280089F31188BFF36F8F2B7D2A8A2C6A1B338F
:1034380023F00303521A02FB0344154B154AEB1AF7
:103448009B105343A3722B7DE372CBE789F311885A
:10345800BFF36F8F23464246284606F0C9F9044653
:103468000028BFD10024204605B0BDE8F083636181
:10347800012300252381039B6382E27A6560294644
:1034880004F118000DF0C8F963692582E360EAE7E2
:1034980044060020398EE33870B50C4C242500B959
:1034A80070BD037A4668013BDBB20372002BF7D18B
:1034B800C3604360837A05FB03439B6913B1984754
:1034C8003046ECE7FFF722FFFAE700BF440600208A
:1034D80038B5044606F0B2FD204609F011FAA06995
:1034E800C8B194F86830DB070DD5164A1648022192
:1034F80009F004FA6FF07705201D09F008FA06F0C4
:10350800B1FD284638BD0CF058FC38B90F4A0E48B2
:10351800012109F0F3F96FF01205EDE7204601F0FB
:1035280075F805460028E7D10146282204F1200055
:103538000DF072F994F8683043F0010384F86830AC
:10354800DAE700BF49270108481101087327010875
:1035580038B5054609F0D4F995F86830DA070BD480
:10356800184A1948022109F0C9F94FF0FF34281DFB
:1035780009F0CDF9204638BD9B0707D5134A1248F4
:10358800022109F0BBF96FF07704F0E7A86909F0A8
:10359800AFFF044628B10E4A0B48012109F0AEF9E5
:1035A800E5E7284609F031FB044618B1A86909F097
:1035B800CCFFDCE795F8683043F0020385F8683003
:1035C800D5E700BF9627010848110108BC27010864
:1035D800E227010838B590F868309B07044608D4FC
:1035E800144A1548022109F089F96FF07705284631
:1035F80038BD09F085F90021204601F029FA20B1EB
:103608000E4A0D48012109F079F9A06909F09DFFDA
:10361800054620B10A4A0848012109F06FF994F8D3
:1036280068306FF3410384F86830201D09F06FF9A2
:10363800DDE700BFFE270108481101082528010819
:10364800432801082DE9F04190F8203003F01F03CA
:10365800012B04460E4600F120071DD0022B05D091
:103668000BBB90F8211009F059FB03E090F82410E7
:1036780001F04EFB0546B0B1E18C94F8200009F04A
:103688007EFA0246686883685AB19B683BB3324643
:103698003946BDE8F041184790F8241009F025FB99
:1036A800E8E7DB68F2E794F82110204609F06CF9A6
:1036B8000246A0B194F82050E18C284609F05FFA40
:1036C80038B113692BB1324639462046984703462C
:1036D80007E021B1ED0902D0D368002BF3D16FF0D8
:1036E80085030DF067F9024A13500020BDE8F08108
:1036F8000C0000002DE9F04385B0074688461446C3
:103708001E4609F006F905468EB1384609F006F955
:10371800012809D00DF04EF9344B6FF085021A508C
:10372800002005B0BDE8F083B5FA85F56D090134D0
:10373800E2B22946384609F082FA814630B92C4A65
:103748002C482346012108F060FFE3E744684EB1A6
:103758002068616801AB03C3227A1A7007238DF8C9
:10376800053001AC08F10C06304609F0BFF82278A4
:10377800824203D9304609F0B9F80246214630465C
:1037880009F092F8D9F80C90B9F1000F09D1B8F8FE
:103798001010FB8C9942C3D9C91A304609F09FF81A
:1037A800BEE7D9F8040083681B6B13B9D9F80090F9
:1037B800EAE7294698470028F8D0041F54F8043F40
:1037C800002BF3D01B78002BF0D0304609F08EF890
:1037D80023681A78824203D9304609F087F882B202
:1037E8002168304609F060F8E8E700BF0C000000E7
:1037F80073280108281101082DE9F04F95B00B7EB8
:1038080033F0800502AF04460E4691460BD0AD4A10
:10381800AD48012109F0B1F96FF0040528464C378D
:10382800BD46BDE8F08F4A7EB9F1000F1CD019F1F2
:103838000C0F19D0D10717D419F1710F08D1A34A69
:10384800A148032108F0E1FE3046FFF725FEE5E731
:103858009F4A9D48CDF80090012108F0E0FE3046CF
:10386800FFF71AFE4D46D9E7E8468CB002F0010C86
:10387800C2F34000C2F38001B6F810E002AADFF8F4
:1038880054A2D162C2E9073E0823C2E905A6C2E9EB
:1038980009C042F8103F00238B4844F2C001FEF7EC
:1038A8008FFC737E13F0010AC54600F0BA84327E9D
:1038B800002A40F0B68404F12003BB60338A072B4A
:1038C8000CD9F26813682362536863627568E18CE7
:1038D800BDB9814A7C48012109F04FF97F4A7A48ED
:1038E800012109F04AF93046FFF7D6FDE28C94F839
:1038F8002030A06912B1DB0900F0FA84802100F0C1
:10390800FCBC94F8200009F03AF9D0B16B7E31B1D3
:1039180013F002031AD188B002AA714905E013F026
:10392800040313D188B002AA6E49C2E90515032120
:1039380042F8101F64484FF4C251FEF741FCC546D7
:10394800CCE709B9684AC5E76B7EE1E73146002054
:1039580008F092FF064628B95F4A5B48012109F042
:103968000CF9C3E70DF026F894F820805F4D00238A
:1039780018F0600F4351C8F3411307D0032B40F0F0
:1039880063820DF017F86FF085033DE0B4F826B0B8
:103998004046594609F0F3F894F82130002800F021
:1039A800E681013B0A2BECD801A252F823F000BFB4
:1039B800F73B00088B390008DF3C00088B3900080A
:1039C800E53900088B3900088B3900088B39000865
:1039D800193B00088B390008A13B0008A069618CDD
:1039E80003697F29D3F88020CBD8A38C5BEA030333
:1039F800C7D118F01F0FC4D194F82C30022B39D13D
:103A08000CF0D8FF4FF0FF332B504FF00008384A26
:103A18002D48032109F0B1F8EA4688B002AA354BCF
:103A28005361354B93614FF400739383334B42F8E2
:103A3800103F2548BB683249FEF7C2FB0CF0BAFFBD
:103A48002B588633D54604D12E4A1F48032109F046
:103A580094F80CF0AFFF2B58013306D194F82C30B2
:103A6800294A1948032108F0D0FDB8F1000F00F0E9
:103A7800E08011E0130714D5C9B209F0AAF880460E
:103A880090B1638C214A1048012108F0BEFD0CF06A
:103A980091FF2B58002BBAD13046FFF7FDFC454665
:103AA800BCE6012384F8353094F82C30012B07D17B
:103AB800638C2BB984F82C300CF07CFF2B58DDE09C
:103AC8000123F7E79928010828110108BA280108F5
:103AD800DF2801080E29010842290108A529010843
:103AE8006429010873290108842901080C000000D1
:103AF8006C2A0108EF1E01087C2A01080300000156
:103B0800C01C800030370108832A0108BC2901083D
:103B1800204608F0FEFE638C8046BC4ABC48032160
:103B280008F073FD628CFF2A3FF62BAFE38C002B65
:103B38007FF427AF94F82030D9067FF422AF94F8A9
:103B48002C30002B3FF45CAF3AB1D2B2414620464C
:103B580009F09DF800283FF453AF618C94F8343095
:103B68008B42A9D0C9B2204600F072FF638C804610
:103B780030B1A84A00900121A54808F050FD86E719
:103B8800002B18BF4FF0020A84F82CA01A46052112
:103B9800204609F0ACF98FE708F01F08B8F1010FCB
:103BA8007FF4EFAEBBF1000F7FF4EBAE628CFF2A1F
:103BB8003FF6E7AEA18CFF293FF6E3AE94F82C3030
:103BC800022B7FF41DAFD2B2C9B2204601F020FA11
:103BD80010F1020F804640F087818D488E4A0321FC
:103BE80008F0CBFF0CF0E6FE45F800800DE7A38C4B
:103BF800BBF1000F7FF4C5AE94F82C20002A3FF4E7
:103C0800FFAE012A0FD1002B7FF4FAAE18F01F087F
:103C18000CD1638C012B0CD194F868306FF3C3037B
:103C280084F8683005E018F01F0807D0B8F1020FD3
:103C380008D00CF0BFFE2B581BB354E6002B7FF4C2
:103C4800DFAEE6E7B4F822B0BBF1000FF1D15FFABE
:103C580083F84146204601F09DFA03460CF0AAFE7F
:103C68002B500133824602D14FF0FF38CFE65A4637
:103C78004146204608F071FF55F80A30002B7FF4C2
:103C8800C4AE0123E18C94F82000A36208F077FF0A
:103C9800002800F0BF82002900F0BC82DFF87CA178
:103CA800DFF86C816D4688B002AA0323C2E905A635
:103CB80042F8103F00234FF4C6514046FEF780FA01
:103CC8003146AD46002008F0D7FD0646002840F0F2
:103CD8009D82534A41E6A18CBBF1000F7FF451AE9F
:103CE800638C022B5FFA81FB11D108F01F085BEA95
:103CF80008087FF446AEA0690122090A08F046FFC9
:103D080000287FF43EAE012384F83530D4E694F8D9
:103D18002C20002A3FF474AE012A0CD100297FF42C
:103D28006FAE18F01F0809D1012B82D194F86830C2
:103D380043F0080374E718F01F0814D0B8F1020F15
:103D48007FF477AF002B7FF474AF5946204601F01B
:103D5800FFF903460CF02EFE2B500133824683D028
:103D68000122594685E700297FF44AAEDCE70A2B91
:103D78003FF607AE01A252F823F000BFB13D00089C
:103D88008B3900088B3900088B3900088B390008FB
:103D98008B390008433E00088B390008AB41000806
:103DA8008B390008D9410008BBF1020FA18C7FF4C0
:103DB800E8AD94F82C30002B3FF422AE012B0CD147
:103DC80000297FF41DAE18F01F0809D194F8688007
:103DD8004FEA980808F0020807E018F01F0811D009
:103DE800B8F1020F1ED04FF0000806F10C0A504639
:103DF80008F07CFDE38C98421AD20CF0DBFD6FF0E2
:103E08000B0301E600297FF4FBADDFE7DE2901089B
:103E180028110108012A0108242A0108A42A0108F6
:103E28003D2B0108C9B2204609F040F88046DCE77E
:103E38004146504608F049FD3EE6628C18F01F0FD7
:103E48004FEA1223D2B204D031462046FFF7FAFBDC
:103E580049E0013B0E2B3FF694AD01A151F823F048
:103E6800A53E0008E53E00080B3F00088B39000816
:103E78008B39000853400008073F00088B390008B9
:103E88008B3900088B3900088B3900088B390008FA
:103E98008B3900088B390008C140000806F10C086E
:103EA800404608F023FD83450AD2B4F826A02046F0
:103EB80008F02FFD48B101287FF463AD216F05E0BC
:103EC800404608F013FD8246F1E7E16E0A78524554
:103ED80028BF5246404608F0E7FCEDE5002331468E
:103EE8002046FFF707FC80460CF064FD2B58002B9A
:103EF8007FF48DADB8F1000F3FF4C3AECCE50123DC
:103F0800EDE70321204608F07EFD804600283FF4B7
:103F180038AD08F01DFEB4F826B0B8B9B8F81430BA
:103F28003B85D8F8103006F10C081B887B85404685
:103F380008F0DCFC834580F0BB80E08C97F82820F3
:103F4800824228BF024607F12801C3E798F81530D6
:103F5800D8F808207B75BB4B1340BB4A4FF0000ACA
:103F6800934287F814A060D1102107F1180002F0DD
:103F780069FF002840DBDFF8D4E207F1180207F1F7
:103F880028015346834201F102013ED19B000233CE
:103F98003B7507F1280306F10C0A5046FB6008F050
:103FA800A5FC97F81480D84528BFD846404503D2C9
:103FB800504608F09BFC8046B8F1020FC34628BF64
:103FC8004FF0020B5A4607F11401504608F06CFCFA
:103FD800A8EB0B08D7F80CB04FEA58030BEB5802C4
:103FE8005A4528D118F0010F3FF466ADFA68D15C44
:103FF800504608F062FC5FE558307FF4C2AC944A42
:104008009448012108F0B9FDBBE412F801CB4FEA4E
:104018001C180CF00F0C1EF808801EF80CC001F8D4
:10402800028C01F801CC0133ACE798F814303B75E9
:10403800D8F81030AFE71BF8011B5046C7E900233A
:1040480008F043FCD7E90023CAE7204608F061FCE2
:10405800D4E91B32002808BF134640F20A623A85A9
:104068005A887A851A7987F82C205A7987F82D206A
:104078009A7987F82E20DA7987F82F205B7C87F8E1
:104088003030002387F83130204608F047FC0128FB
:1040980005D00CF08FFC6FF085032B500CE506F172
:1040A8000C084046B4F826A008F020FC824542E7F8
:1040B800404608F01BFC41E7204608F02AFC18B1EE
:1040C8000128E6D1236F00E0E36E5B88B3F5007F3B
:1040D800DFD9614BBB62002387F82C30A36C04F155
:1040E800480B9B455AD106F10C0A504608F0FEFBD6
:1040F800B7F82A80E38C984528BF9846404503D2F4
:10410800504608F0F3FB804697F82820424528BF20
:10411800424607F12801504608F0C6FBB8F1050FE2
:1041280094BFA8EB0808A8F10508B8F1000F3FF400
:10413800C3ACA36C5B453FF4BFAC002B3FF4BCACF5
:104148005A7D0F2A14D11A7D1969FB60424528BF90
:104158004246504608F0A8FBFB681A7D424594BFCA
:10416800A8EB0208A8EB0808B8F1000F3FF4A4ACCC
:10417800E26C9A423FF4A0AC1B68DEE75A7D0F2A36
:1041880008D11A7D798D0A447A8597F82C20013256
:1041980087F82C20E26C9A42A5D01B68002BEDD141
:1041A800A1E794F82C3094F834A0002B3FF428AC05
:1041B800BBF1010F7FF4E5AB06F10C08404608F0AF
:1041C80095FBE38C9842FFF418AE5146404610E741
:1041D80008F01F08B8F1010F7FF412AC204608F070
:1041E80042FD00283FF40CACA38C4268FF2B3FF63D
:1041F800C8AB12799A42FFF4C4AB0F2B3FF6C1ABA0
:10420800234493F836A0E38C012BD3E7737E5A0737
:104218007FF548AD3146204600F052FF0546FFF7CE
:10422800FDBA5B077FF562AB337EDBB9A36A094849
:10423800012B0BBF094A0A4A0321022108F09DFC01
:10424800FFF702BB00FF0200000302005A2B01081F
:104258004A2A010828110108050F0500AD2A01089E
:10426800C22A0108802B7FF441AB3046FFF714F9CE
:10427800A66A012E35D1244A2448032108F07DFC82
:1042880094F83530002B3FF4C9AA94F82130052B57
:104298000CD194F82210A06908F09BFC054628B1BF
:1042A800638C1B4A1948314608F0AFF994F821305D
:1042B800032B11D1638C022B0ED1A18CA0690E0A9D
:1042C8000022314608F062FC054628B1114A0F4821
:1042D8003346012108F099F9002384F83530FFF7B7
:1042E8009DBA0D4A0948022108F047FCFFF796BA23
:1042F80019F10C0118BF0121C90109F051F8002377
:104308000546A362FFF78ABAE32A010828110108C3
:10431800BC290108FB2A0108192B010802480022C0
:10432800002305F0E5B800BF0C06002030B589B0C1
:1043380000220023CDE9062300246FF00703CDE90E
:104348000334CDE901441A4B1A4900944FF48062B2
:10435800194805F0CDFC194917480BF074FF184BA4
:1043680018498B4207D3184B184900208B4210D3A9
:10437800002009B030BD03F11402BFF35B8F52E88F
:10438800000F42E80045002DF9D1BFF35B8F1833C9
:10439800E7E703F11402BFF35B8F52E8004F42E8EE
:1043A8000005002DF9D1BFF35B8F1833DEE700BF9E
:1043B8002D4400088021002088110020231C0108BA
:1043C80000070020180700201807002030070020E9
:1043D80038B50D4608F047FC30B9104A1048BDE81A
:1043E8003840012108F008B9C46804B938BD2B78F1
:1043F800032B07D0052B0CD0022B08D160688368EB
:104408009B6902E0606883685B6903B19847246828
:10441800EBE760688368DB69F7E700BF742B010886
:10442800381101082DE9F04FDFF8C081DFF8C0919D
:10443800704E85B000AF4FF0FF334FF0FF32391D9B
:10444800404605F0ABF8FB681B69D3F89C403B7904
:10445800072BF0D8DFE803F00A041E0D382F99C2A5
:1044680000220121204608F042FDE4E7002211461F
:10447800F8E794F8683043F0040384F8683094F857
:104488002C30022B03D1391D2046FFF7A1FF002253
:104498000321E7E794F868306FF3820384F8683003
:1044A80094F82C30022B03D1391D2046FFF790FFDA
:1044B80000220221D6E794F82C30022BBBD1391DFB
:1044C8002046FFF785FFB6E794F86830D4F818A0BF
:1044D8006FF3820384F86830DAF81030DAF808B03D
:1044E800BFF35B8FD3F8A030BFF35B8F98071BD562
:1044F800DBF83C3050469847DBF824300021504622
:104508009847DBF840300546504698477DB13A4A0F
:104518000121304608F070F800220421204608F0F6
:10452800E6FC2A4607219DE74FF0FF35EFE72946CD
:10453800204600F08DFA054608B1304AE8E78021A8
:10454800204608F0B0FC20B12D4A0121304608F081
:1045580053F8A06908F0B6FF03462A4A03213046FB
:1045680008F053F8A06908F0ADFF94F86830811E90
:104578004842484123F03803002243EA001384F8F4
:104588002C2084F8683004216CE7D7F808A09AF842
:104598001830DAF81E205B06514620461BD1FFF77B
:1045A8002BF9054600283FF446AF9AF81810BB6867
:1045B800EA468AB06A461448C2E907130523C2E9E5
:1045C800050542F8103F00234FF421513046FDF70E
:1045D800F7FDD546A5E708F098FBE2E701214A4632
:1045E800304608F009F8BA6806213BE70C060020B7
:1045F8005B2C010838110108A32B0108D12B0108F5
:10460800FD2B01081A2C0108312C010838B5024687
:104618000C490546806908F0BCFF044630B10A4AD7
:104628000A48012107F0E8FF204638BD85F8340024
:10463800284600F0A5F904460028F5D0A86908F036
:10464800DBFFF1E7254300086B2C0108381101084E
:104658002DE9F8434FF0010805460C464646206808
:10466800002840D068F07F02D2B211465FFA88F77E
:1046780008F0D1FAE0B1D5F800901146484608F0A4
:10468800CAFA48B913461948194A012107F0BDFF6B
:104698006FF01500BDE8F88322F08002103206FAA8
:1046A80002F229EA02032B60236823EA020323604B
:1046B8002068394608F0AFFA80B12A6839461046B2
:1046C80008F0A9FA08B94346DDE706FA08F122EA34
:1046D80001022A60236823EA0103236008F1010824
:1046E800B8F1100FBBD10020D4E700BF6811010852
:1046F800922C01082DE9F04F91B002AFC7E90321D0
:1047080000265368D46878607B623E63BE61B4B9A2
:10471800BB697A6A09339BB293701B0AD37016710E
:1047280053888F4A00938F483346032107F077FF59
:10473800FB68DC68002C40F00581A246D4E0606884
:1047480083681B6B00257D63002B00F0D5803969D9
:104758009847002800F0D080031FC4E90355FB6187
:104768003546FA6952F8043FFA610BB11A78D2B9A2
:10477800B54240F2BE80E2687B6B1A43E26023696F
:10478800784800920321784A07F049FF60688368F7
:104798009B6A002B00F0B28098478246002800F000
:1047A800B080724A9CE05A780B2A08BF9D70FB695A
:1047B800D3F8008098F80130042B1CD1E3687A6B99
:1047C8001343E36098F80330002B79D188F802503E
:1047D80023690122AA40134301352361EDB2002366
:1047E8007B6398F8032098F802305E480092032112
:1047F8005F4A07F014FFFB69D3F8008098F801308E
:10480800052BAED17B689B69BB6001236FF0120A50
:104818003B6298F8051098F8042097F820B03B6B95
:104828007B6142EA0122FA8598F90220002AB8BF82
:104838004BF0800B5946184608F0EDF9002849D18D
:10484800D7F834905946484608F0E5F9002841D190
:1048580098F8063098F803200093B86807F12E03FB
:10486800594608F013FD8246A0BB1BF0800F18BF05
:104878002BF080024FF001031CBF103293407A697D
:10488800F88D88F802B008BF03FA0BF31A4349EA17
:104898000309A8F80400E8468AB0C7E90C2902AA67
:1048A800344BC2E9053B0523C2E9070942F8103F2A
:1048B8002C4800234FF42351FDF782FCC54650E7EE
:1048C8006B1E88F8023007F1340107F13000FFF75A
:1048D800BFFE84E73B6A0133102B3B6299D1264A1D
:1048E8002048012107F088FE50463C37BD46BDE808
:1048F800F08F6FF0150AF2E7354647E76FF0850A43
:104908004FE7D4F804803969404608F0CEF96E467E
:1049180088B002AA1949D061C2E90518042142F8F1
:10492800101F104853464FF40351FDF749FCB54694
:104938006068396908F0B9F9BB6924680344BB6148
:104948002E46E4E6E368A36004F10C0107F13000A9
:10495800FFF77EFE82460028C6D12468EAE600BF3B
:104968008E2D010868110108F62C0108402D010858
:10497800AF2C0108C92C01081C2D0108642D010861
:104988002DE9F0418369C26E1B6993F88030C3F347
:104998004113022B044612D0032B12D0012B0CBF5B
:1049A80010230823D371A66D1E4FDFF87C8056B9FB
:1049B800266D1E4FDFF87080FEB9354611E02023C2
:1049C800F0E74023EEE7324601212046FFF792FE4A
:1049D800054648B173685B79154A1348012107F009
:1049E80014FE2846BDE8F081236F5B7C03213A461C
:1049F800404607F00AFE3668D9E7324600212046CD
:104A0800FFF778FE054618B173685B79094AE4E751
:104A1800E36E5B7C03213A46404607F0F6FD3668B4
:104A2800CAE700BFD32D0108681101080F2E01083D
:104A3800B02D0108EC2D010808B5034A03480321ED
:104A480008F0F2F8002008BD322E010820110108F4
:104A58002DE9F04105460E4607F05BFF95F8343026
:104A680080463BB3284608F0FEF80746F8B10146F1
:104A7800284608F06AF910220446002105F136009C
:104A88000BF0CAFE002385F83430FF6847B98CB1B3
:104A9800194A1A48012108F0C7F82046BDE8F081F4
:104AA800786883685B6A03B198473F68EEE76FF000
:104AB8003C04EDE71EB985F834600024EDE7324682
:104AC8004146284608F0BBF8074690B102462846FA
:104AD80008F065F904460028DFD185F83460FC68E1
:104AE800002CEAD0606883681B6A03B19847246881
:104AF800F6E76FF03C04D0E72528010820110108EB
:104B08002DE9F041054657688846144608F08EF8A6
:104B180095F86830D8070CD5514A5248012108F059
:104B280083F86FF00F08281D08F087F84046BDE8A5
:104B3800F081B8F1010F16D1284607F0EFFE38B919
:104B4800494A4848012108F06FF86FF08508EAE7FC
:104B5800FB7999061AD5AB691B69D3F880309A0797
:104B68000CD4424AEDE7FB799B06F4D4B8F1000F68
:104B78000AD1AB6D4BBB05F150060BE0B8F1000F45
:104B8800F7D0B8F1010F01D0394ADAE72B6D83B9B4
:104B980005F1580633680022EBB96268B8F1000FD6
:104BA80041D1EB6E5B7C0133DBB25371EA6E537417
:104BB80023E0A34207D12F4A2A48012108F034F8FC
:104BC8006FF01508AFE71B68E1E7A34201D12A4A55
:104BD800F2E71B68CEE79C4222D12368D2B97268FB
:104BE8003360944200D173600023236063685B796B
:104BF800224A1C48022107F008FDA16821B3284673
:104C080007F01BFF8046D8B11D4A1648012108F05D
:104C18000BF888E7136073689C4208BF7260E3E78B
:104C28001A461B68B8E7B8F1010F02D00123537187
:104C3800E3E72B6F5B7C0133DBB253712A6FB6E776
:104C4800A06807F085FFB87100232360736823B953
:104C5800C6E900444FF0000865E71C607460F9E796
:104C6800972E010820110108B92E0108582E0108B5
:104C7800D72E0108F72E0108142F0108312F01083B
:104C88004E2F0108F8B5054600AF21B301290BD115
:104C9800184C194E2AE0636828461968FBF7D4FDBA
:104CA800B0B11834B442F6D36C4688B06A46134B98
:104CB800C2E905354FF400739383114B42F8103F56
:104CC800104800234FF4E251FDF77AFAA546002474
:104CD8002046BD46F8BD0C4C0C4EE3E763682846F9
:104CE8001968FBF7B1FD0028F2D01834B442F5D3A7
:104CF800DAE700BF1807002030070020852F0108D9
:104D080003000001301101080007002018070020E7
:104D180070B501F07F0311F0800F18BF1033012523
:104D28009D4090F82C30022B044606D00C4A0D48C2
:104D3800012107F061FC002070BD90F8346007F095
:104D4800E8FD32460146204607F079FF0028F2D0F8
:104D5800C0680028EFD083681D42EDD10068F8E7ED
:104D6800A32F0108301101082DE9F843054608462C
:104D7800114616461F46FFF785FF044600284AD00D
:104D8800284607F08BFF95F86830DA0702D5234AE2
:104D980001210CE0D4F80480BFF35B8F6369BFF393
:104DA8005B8FDB0704F114090CD51D4A02211D484D
:104DB80007F022FC6FF00F04281D04F0C9FC204600
:104DC800BDE8F883D8F804301BB1AB4201D0164ACD
:104DD800DEE73A463146284607F031FFC0B10023E6
:104DE800236003698BB9C0E90344BFF35B8F59E8BB
:104DF800003F43F0010349E80032002AF7D1BFF32E
:104E08005B8F0024C8F80450D6E71C600461ECE707
:104E18006FF03C04D0E76FF01204D0E7972E01083A
:104E2800C82F010830110108EA2F01082DE9F843BD
:104E3800012900AF804615462BD1244EDFF890900B
:104E480020E071682B46096801224046FFF78CFF75
:104E58000446B0B173686E468AB01B686A461D493D
:104E6800D561C2E905134FF4007313841A4B42F855
:104E7800103F1A4800234FF41151FDF7A1F9B54628
:104E880003E018364E45DCD300242046BD46BDE875
:104E9800F883B1B16FF08504F7E718364E45F3D2C1
:104EA80071682B46096800224046FFF75DFF0446FB
:104EB8000028F2D073686E468AB01B686A460849B3
:104EC800CEE7084EDFF82090E8E700BF180700207B
:104ED800300700201F3001080400000130110108CC
:104EE8004C30010800070020180700202DE9F04F7A
:104EF80085B000AF4C689A4697F838307B600E460C
:104F08008146904607F005FDA3681B6B014633B93F
:104F18006FF0150420461437BD46BDE8F08F2046D3
:104F280098470028F4D006F10C03A0F1040B0022E6
:104F3800BB605BF8045F0DB1297819B9B2B96FF09D
:104F48003C04E7E76978042912D17AB9A978514570
:104F5800EFD1E9787B689942EBD12B790BB101222B
:104F6800E7E7274A2748032107F046FB0024D1E753
:104F78000529DED1002ADCD0AB78FB60B8F1010F3F
:104F880018D0B8F1020F34D06C468AB0A978F3680B
:104F98006A461D4853620623C2E9050AC2E9071892
:104FA80042F8103F174800234FF44351FDF708F922
:104FB800A546D4E7BA68D9F81800294607F026FFAD
:104FC80004460028E0D06D468AB0F3686A460F4967
:104FD8005062C2E90518F968C2E90713062342F8C6
:104FE800103F084800234FF44151FDF7E9F8AD465A
:104FF80090E7D7E90221D9F8180007F023FFDFE787
:105008008430010860110108D2300108A13001087C
:105018002DE9F04F83B002AF81460C46154607F0E4
:1050280064FE064628B96FF001000437BD46BDE8A6
:10503800F08F0F2CF7D809EB0408EB468AB098F8E4
:1050480036A002AA1C4BC2E905340523C2E907A50C
:1050580042F8103F194800234FF42351FDF7B0F8E8
:105068005545DD4601D10020DFE7009523460022A3
:1050780031464846FFF73AFF0028D4D1CDF800A0C2
:105088002346022231464846FFF730FF0028CCD19C
:1050980000952346012231464846FFF727FF00289E
:1050A800C3D1706883685B6813B12A462146984764
:1050B80088F83650D7E700BF0231010860110108AF
:1050C8002DE9F0410B7E5E0605460C4638D11906DF
:1050D8002DD507F04DFC40B11B481C4A012107F0B3
:1050E8008BFA4FF0FF30BDE8F0812846D5F86C8088
:1050F800268AEF8C07F00DFCF8B1421E534253414B
:105108009B01228A9AB1BE42E98C324628BF3A46B0
:1051180091420CD9B2FBF3F103FB11223AB994F98D
:105128001830002BBEBF637E43F008036376A8697E
:105138002146BDE8F04108F08DB998F80730E0E75E
:105148006FF01500CFE700BF501101083331010897
:1051580070B5064680690C4608F022F9054638B154
:105168000A4A0B482346022107F04FFA284670BD29
:1051780014F0800F18BF24F08004336B4FF0010245
:1051880018BF1034A2401A433263EFE747310108D1
:105198005011010870B5054680690E4608F02AF9D5
:1051A800044638B1064A07483346022107F02DFA6B
:1051B800204670BD314605F1300007F018FEF7E7CC
:1051C8005E3101085011010870B50646EFF31181F0
:1051D800102282F31288BFF36F8F1D4C236881F36E
:1051E8001188BFF36F8F5B6893F86830DB0705D4CD
:1051F800BDE870400A22002304F028BDEFF31183B4
:1052080082F31288BFF36F8F256865B983F311881D
:10521800BFF36F8F2368D3B130460022BDE87040DA
:10522800002304F0DFBC61682A6822608D4208BF51
:10523800626083F31188BFF36F8F686805F1080116
:10524800C3699847034829460AF066FEE2E770BD3D
:10525800E81900206405002030B585B06C4684E864
:105268000600054600221548002303A904F012F998
:105278000246E8B9039B94E803005D60083383E8BD
:105288000300EFF31180102383F31288BFF36F8FAD
:10529800039B1A600A4A516861B9C2E9003380F376
:1052A8001188BFF36F8F07480022002304F09AFC8F
:1052B80005B030BD0B605360F1E700BF6405002006
:1052C800E81900200000002010B5046903462046B4
:1052D80040F8143B012200210AF02CFF04F12400BD
:1052E80002490AF072FF002010BD00BFA95500084E
:1052F80073B513464A7800690A2A1AD00B2A34D0A3
:10530800092A254C2CD105694A886D68AD68110AAF
:10531800D2B2F5B1022903D0032901D001291FD146
:10532800DE6800961B8AA84703460BF043FB235010
:105338000CE0498803690A0A5C6811F0FF0108BF9C
:1053480083F83420E36823B192009847002002B024
:1053580070BD0BF02FFB104B6FF085021A50F5E76C
:105368000BF028FB6FF08503E1E749884268036981
:1053780014685A680129ECD8A479002CE9D093F86C
:1053880035408C42E2D0C9B283F835105369002BFE
:10539800DCD09847DAE700BF0C00000073B54B7803
:1053A8000069013B1546052B07D8DFE803F01F030A
:1053B8004C06065BCB88012B06D00BF0FBFA374B6B
:1053C8006FF085021A5039E0036989785A6829B163
:1053D8001369002BF1D09847810801E093F8341045
:1053E800C9B205F10C0007F068FA27E04A88CB88B3
:1053F8000469110A02296468D2B20AD0032908D0C4
:10540800012906D06FF085040BF0D4FA234B1C5009
:1054180014E0EE6800966468A0470028044610DD92
:105428000C35284607F062FAA042214603D22846E6
:1054380007F05CFA0146284607F030FA002002B06F
:1054480070BDE1D1DEE74B88002BB6D1CB88012BAC
:10545800B3D143681B689B79002BAED0036993F8DE
:105468003510BEE74B884268046910681B0A212B77
:105478000CD0222BA1D1CA88E368A1689A4228BF20
:105488001A4605F10C0007F00FFAD7E7CB88427AE5
:105498009A4228BF1A4600F10901F2E70C00000001
:1054A80038B5046940680068BFF35B8F2569BFF3AE
:1054B8005B8FED071FD40BB15D683DB90F4A1048EB
:1054C800012107F099F86FF0150038BD90F82050C9
:1054D8001DB19D680DB90B4AF1E785791DB15D696C
:1054E8000DB9094AEBE7C4E9021263600274120AB3
:1054F80042740020E9E76FF07700E6E78831010899
:1055080058110108A7310108C63101082DE9F34DEA
:105518000B4606691146426877685468BFF35B8F8B
:105528003069BFF35B8FC00733D5206940680068D6
:105538004FF0000A4FF0000B90F81480D068CDE9C6
:1055480000AB1A4607F069F9054650B9124A1348E4
:10555800012107F051F86FF00B04204602B0BDE8B6
:10556800F08D80F818800146204607F081FC04463B
:1055780018B12846FDF790FFEFE7BB69002BECD187
:105588004FF0FF324FF0FF3306F1140004F096F9A4
:10559800E3E76FF00C04E0E7E73101085811010870
:1055A80070B550F8243C59684D68BFF35B8F50F8CC
:1055B800143CBFF35B8FDB071DD52B6988685B68DC
:1055C8001B68002293F82260002307F022F90446A2
:1055D80030B9094A0948BDE87040012107F00CB804
:1055E80006760146284607F043FC20B12046FDF721
:1055F80053FF034AEEE770BD023201085811010853
:105608001C32010830B585B00D4C01900D4D9DF848
:1056180020008DF808008DF80910ADF80A200393D2
:10562800AC4202D3002005B030BD236813B1019A03
:10563800934203D1D4E9013101A898470C34EFE72C
:10564800901101089C1101082DE9F041104E114FED
:10565800054600244FF001082B7871691A19D2B257
:1056680008FA02F201EA02008A4309D153FA84F3E4
:10567800706157F833201AB107EBC3035968904794
:105688006A780134E3B29A42E6D2BDE8F08100BFFD
:1056980000040140281A0020044B18440023013359
:1056A800994200F8012BFADC704700BFE70400209C
:1056B80007B5062201210020FFF7EEFF0022114660
:1056C8000620FDF7BDFB012108460722FFF7E4FF8E
:1056D800002211460720FDF7B3FB08220121022012
:1056E800FFF7DAFF002211460820FDF7A9FB09227F
:1056F80001210320FFF7D0FF002211460920FDF702
:105708009FFB0A2201210420FFF7C6FF0022114651
:105718000A20FDF795FB052108461722FFF7BCFF75
:10572800002211461720FDF78BFB282206210A20AC
:10573800FFF7B2FF002211462820FDF781FB18224F
:1057480005480123CDE90023836869461B6898470B
:1057580003B05DF804FB00BFD00A0108034660B13E
:10576800B0FA80F2C2F11F02D2B205498856054A42
:1057780011680B431360FDF733BBFF22F5E700BF49
:10578800E704002000040140024A136823EA0003EA
:105798001360704700040140032921D8DFE801F0B5
:1057A800020C10190F4B9A6822EA00029A60DA6814
:1057B80022EA0002DA6070470A4B9A680243F5E76A
:1057C800084BDA680243DA609A6822EA00029A60B3
:1057D8007047044B9A6802439A60DA681043D860AD
:1057E800704700BF0004014030B5B0B1B0FA80F393
:1057F800C3F11F03DBB20B4850F833408C4204D18D
:1058080000EBC3056D68954205D044B940F83310E4
:1058180000EBC3004260002030BDFF23EBE76FF0D0
:105828000F00F9E7281A002060B1B0FA80F3C3F13D
:105838001F03DBB2044A002142F8331002EBC30213
:1058480051607047FF23F5E7281A002000F0030293
:10585800043292000F23934043EA900000F00303C0
:105868000233064A52F82320030C02EA104093FA46
:10587800A3F3B3FA83F3D840704700BF0000014098
:1058880038B50369BFF35B8F03F1A004D3F8A030E8
:10589800BFF35B8FC3F3800399420D4604D10E4AD0
:1058A8000E48022106F0A8FEBFF35B8F55B154E8FD
:1058B800003F43F0040344E80032002AF7D1BFF365
:1058C8005B8F38BD54E8003F23F0040344E80032FE
:1058D800002AF4D0F6E700BF883201080811010851
:1058E8002DE9F0470546D0F808A0894690461F469E
:1058F80007F036FC0446C0B1067DF30709D5037EE0
:105908001648174A012106F080FE6FF07700BDE8BF
:10591800F0873B464246494607F0DCFB40B9237E08
:10592800104A0E48012106F070FE6FF01200EEE7F3
:105938009DF8203084F8198026F00E0667832377B7
:105948002675DAF81830214628469847227DB0FA9D
:1059580080F35B0963F300022275D8E70811010898
:10596800A6320108C032010870B50546866807F0FE
:10597800F7FB0446D0B1037DDB0708D4037E0D484E
:105988000D4A012106F041FE6FF0770070BD014617
:10599800F3692846984738B1237D03F00103227D37
:1059A80063F300022275F1E70346F8E76FF012008F
:1059B800ECE700BF08110108E2320108F8B5876872
:1059C8000546FB6B0C469847286907F0B7FBD0B132
:1059D8002146284607F0C4FB0646B8B1037D9B075D
:1059E80005D0037E0B4A0C48032106F00EFE3468EE
:1059F80024B1BB6831462846984704463B6C284684
:105A080098472046F8BD4FF0FF34F7E76FF01204CF
:105A1800F4E700BFFD320108081101082DE9F04143
:105A2800D0F808801646D8F83C300F460546984707
:105A38000B48002200233146FDF7B0FC044660B94C
:105A4800084A09483346012106F0DFFDD8F84030FE
:105A5800284698472046BDE8F0810776F6E700BF5C
:105A6800680600201E33010808110108F8B50D4624
:105A78000C7E497E0669C907D6F88020D6F8A4307E
:105A88001DD55CBBEA68D788C6F8A85033B11D4A53
:105A98001D48032106F0B9FDC6F8A44067B3EB68BA
:105AA8001C78E4090134D6F8A4309C4204D1174A82
:105AB8001548022106F0A0FDC6F8A440F8BD6CB94F
:105AC800012B1BD0042B14D12B8A002BEBD0104AAE
